:020000040800F2
:100000000028002075160008051600080B160008C9
:1000100011160008171600081D1600080000000041
:10002000000000000000000000000000231600088F
:100030002F160008000000003B16000847160008B5
:10004000BD160008BD160008BD160008BD16000844
:10005000BD160008BD160008BD160008BD16000834
:10006000BD160008BD160008BD160008BD16000824
:10007000BD160008BD160008BD160008BD16000814
:10008000BD160008BD160008BD160008BD16000804
:10009000BD160008BD160008BD160008BD160008F4
:1000A000BD160008BD160008BD160008BD160008E4
:1000B00055160008BD16000800000000BD16000817
:1000C000BD1600080000000000000000BD1600087A
:1000D00000000000BD160008BD160008000000006A
:1000E000BD160008BD160008BD160008000000007F
:1000F0000000000000000000000000000000000000
:0C01000000000000000000005FF808F1A3
:10010C0010B5054C237833B9044B13B10448AFF345
:10011C0000800123237010BD680000200000000047
:10012C00EC2C000808B5034B1BB103490348AFF393
:10013C00008008BD000000006C000020EC2C0008C2
:10014C0080B582B000AF78607B68092B00F28081AB
:10015C0001A252F823F000BF8D010008D501000860
:10016C001D02000865020008AD020008F502000837
:10017C003D03000885030008CD03000815040008A2
:10018C0000220121B74801F096FD00220221B5485A
:10019C0001F091FD00220421B24801F08CFD0022F7
:1001AC000821B04801F087FD00221021AD4801F074
:1001BC0082FD00222021AB4801F07DFD012240216F
:1001CC00A84801F078FD49E101220121A54801F080
:1001DC0072FD00220221A34801F06DFD00220421D2
:1001EC00A04801F068FD012208219E4801F063FD42
:1001FC00012210219B4801F05EFD0122202199482B
:10020C0001F059FD01224021964801F054FD25E1F1
:10021C0000220121934801F04EFD00220221914859
:10022C0001F049FD012204218E4801F044FD002219
:10023C0008218C4801F03FFD00221021894801F073
:10024C003AFD01222021874801F035FD0022402192
:10025C00844801F030FD01E100220121814801F0C8
:10026C002AFD002202217F4801F025FD00220421F5
:10027C007C4801F020FD002208217A4801F01BFD8A
:10028C0001221021774801F016FD0122202175482A
:10029C0001F011FD00224021724801F00CFDDDE05F
:1002AC00012201216F4801F006FD002202216D4858
:1002BC0001F001FD002204216A4801F0FCFC01223E
:1002CC000821684801F0F7FC01221021654801F073
:1002DC00F2FC00222021634801F0EDFC00224021B9
:1002EC00604801F0E8FCB9E0002201215D4801F012
:1002FC00E2FC012202215B4801F0DDFC002204211A
:10030C00584801F0D8FC00220821564801F0D3FCD3
:10031C0001221021534801F0CEFC0022202151482B
:10032C0001F0C9FC002240214E4801F0C4FC95E0CC
:10033C00002201214B4801F0BEFC01220221494858
:10034C0001F0B9FC00220421464801F0B4FC002263
:10035C000821444801F0AFFC00221021414801F073
:10036C00AAFC002220213F4801F0A5FC00224021DC
:10037C003C4801F0A0FC71E000220121394801F059
:10038C009AFC00220221374801F095FC002204213E
:10039C00344801F090FC01220821324801F08BFC1A
:1003AC00012210212F4801F086FC012220212D482A
:1003BC0001F081FC012240212A4801F07CFC4DE037
:1003CC0000220121274801F076FC00220221254859
:1003DC0001F071FC00220421224801F06CFC002287
:1003EC000821204801F067FC002210211D4801F073
:1003FC0062FC002220211B4801F05DFC0022402100
:10040C00184801F058FC29E000220121154801F0A0
:10041C0052FC00220221134801F04DFC0022042161
:10042C00104801F048FC002208210E4801F043FC62
:10043C00012210210B4801F03EFC0022202109482A
:10044C0001F039FC00224021064801F034FC05E0A3
:10045C0001227F21034801F02EFC00BF00BF0837AA
:10046C00BD4680BD000C014080B582B000AF786005
:10047C007B68092B00F2BE8101A252F823F000BF69
:10048C00B5040008090500085D050008B105000861
:10049C000506000859060008AD060008010700080B
:1004AC0055070008A907000800228021D04801F058
:1004BC0002FC00224FF48071CD4801F0FCFB0022BD
:1004CC004FF40071CA4801F0F6FB00224FF4806132
:1004DC00C74801F0F0FB00224FF40061C44801F062
:1004EC00EAFB00224FF48051C14801F0E4FB0122E9
:1004FC004FF40051BE4801F0DEFB82E10122802165
:10050C00BB4801F0D8FB00224FF48071B84801F0D1
:10051C00D2FB00224FF40071B54801F0CCFB012254
:10052C004FF48061B24801F0C6FB01224FF4006128
:10053C00AF4801F0C0FB01224FF48051AC4801F0F0
:10054C00BAFB01224FF40051A94801F0B4FB58E169
:10055C0000228021A64801F0AEFB00224FF48071EE
:10056C00A34801F0A8FB01224FF40071A04801F050
:10057C00A2FB00224FF480619D4801F09CFB0022FD
:10058C004FF400619A4801F096FB01224FF4805120
:10059C00974801F090FB00224FF40051944801F071
:1005AC008AFB2EE100228021914801F084FB00227D
:1005BC004FF480718E4801F07EFB00224FF40071E5
:1005CC008B4801F078FB00224FF48061884801F0E1
:1005DC0072FB01224FF40061854801F06CFB012293
:1005EC004FF48051824801F066FB00224FF4005119
:1005FC007F4801F060FB04E1012280217C4801F07E
:10060C005AFB00224FF48071794801F054FB002210
:10061C004FF40071764801F04EFB01224FF48061DB
:10062C00734801F048FB01224FF40061704801F05F
:10063C0042FB00224FF480516D4801F03CFB00223C
:10064C004FF400516A4801F036FBDAE000228021B9
:10065C00674801F030FB01224FF48071644801F0CF
:10066C002AFB00224FF40071614801F024FB0022A8
:10067C004FF480615E4801F01EFB01224FF40061D3
:10068C005B4801F018FB00224FF48051584801F0F0
:10069C0012FB00224FF40051554801F00CFBB0E066
:1006AC0000228021524801F006FB01224FF4807198
:1006BC004F4801F000FB00224FF400714C4801F050
:1006CC00FAFA00224FF48061494801F0F4FA002252
:1006DC004FF40061464801F0EEFA00224FF48051CD
:1006EC00434801F0E8FA00224FF40051404801F071
:1006FC00E2FA86E0002280213D4801F0DCFA00227B
:10070C004FF480713A4801F0D6FA00224FF4007190
:10071C00374801F0D0FA01224FF48061344801F0DF
:10072C00CAFA01224FF40061314801F0C4FA0122E7
:10073C004FF480512E4801F0BEFA01224FF40051C3
:10074C002B4801F0B8FA5CE000228021284801F027
:10075C00B2FA00224FF48071254801F0ACFA002265
:10076C004FF40071224801F0A6FA00224FF4806188
:10077C001F4801F0A0FA00224FF400611C4801F060
:10078C009AFA00224FF48051194801F094FA002291
:10079C004FF40051164801F08EFA32E0002280210D
:1007AC00134801F088FA00224FF48071104801F0D0
:1007BC0082FA00224FF400710D4801F07CFA0022FD
:1007CC004FF480610A4801F076FA01224FF400617F
:1007DC00074801F070FA00224FF48051044801F0F0
:1007EC006AFA00224FF40051014801F064FA08E063
:1007FC00000C014001224FF47E51044801F05BFAD9
:10080C0000BF00BF0837BD4680BD00BF000C0140D3
:10081C0080B582B000AF78607B68012B01DD0023CE
:10082C007B607B68002B11D100224FF400611248D1
:10083C0001F041FA01224FF480510F4801F03BFACC
:10084C000E4B1B681846FFF77BFC10E001224FF49F
:10085C000061094801F02FFA00224FF4805106483C
:10086C0001F029FA054B5B681846FFF769FC00BFDD
:10087C000837BD4680BD00BF000801408400002041
:10088C0080B582B000AF78607B68012B01DD00235E
:10089C007B607B68002B11D100224FF48041124801
:1008AC0001F009FA01224FF400410F4801F003FA5C
:1008BC000E4B1B681846FFF7D7FD10E001224FF4D2
:1008CC008041094801F0F7F900224FF40041064835
:1008DC0001F0F1F9054B5B681846FFF7C5FD00BF49
:1008EC000837BD4680BD00BF000C01408C000020C5
:1008FC0080B582B000AF786039607B68264A82FB95
:10090C0003129210DB17D31A244A13607968224B16
:10091C0083FB01239A10CB17D21A13469B00134466
:10092C005B00CA1A1D4B5A603B681B4A82FB0312C0
:10093C009210DB17D31A1A4A13603968164B83FBD3
:10094C0001239A10CB17D21A13469B0013445B0059
:10095C00CA1A134B5A60134B5B68012B17D1124BFD
:10096C001B681846FFF754FF0F4B1B681846FFF720
:10097C0087FF0D4B1B68002B0CBF01230023DBB240
:10098C001A46094B1A602821012000F097FD00BF80
:10099C000837BD4680BD00BF6766666684000020D0
:1009AC008C000020DC0000209400002080B582B078
:1009BC0000AF7860124B9B68012B1DD1114A7B68EC
:1009CC0052F8232010497B6831F813301946104631
:1009DC0001F089F97B6803330A4A52F823207B68BB
:1009EC000333094931F813301946104601F07BF9ED
:1009FC003221022000F062FD00BF0837BD4680BDE9
:100A0C00DC000020000000201800002080B500AFA2
:100A1C0001220221074801F04EF900220421054869
:100A2C0001F049F900220821024801F044F900BF05
:100A3C0080BD00BF0008014080B500AF012210212D
:100A4C00074801F038F900222021054801F033F95C
:100A5C0000224021024801F02EF900BF80BD00BFEA
:100A6C000008014080B500AF00220221074801F0C8
:100A7C0022F900220421054801F01DF90122082168
:100A8C00024801F018F900BF80BD00BF000801400A
:100A9C0080B500AF00221021074801F00CF90022AC
:100AAC002021054801F007F901224021024801F0FC
:100ABC0002F900BF80BD00BF0008014080B500AF47
:100ACC0000220221074801F0F6F801220421054812
:100ADC0001F0F1F800220821024801F0ECF800BF07
:100AEC0080BD00BF0008014080B500AF002210217E
:100AFC00074801F0E0F801222021054801F0DBF85D
:100B0C0000224021024801F0D6F800BF80BD00BF92
:100B1C000008014080B500AF002202210E4801F010
:100B2C00CAF8002204210C4801F0C5F80022082163
:100B3C00094801F0C0F800221021074801F0BBF869
:100B4C0000222021044801F0B6F80022402102487E
:100B5C0001F0B1F800BF80BD0008014080B500AFC6
:100B6C005D4B1B68012B21D15C4B1B78002B0FD0EC
:100B7C005A4B1B78012B0BD0584B1B78022B07D0F0
:100B8C00564B1B78032B03D0544B1B78042B0DD1E5
:100B9C00534B1B68013B524A1360524B1B68013B81
:100BAC00504A13606421002000F088FC4B4B1B78EA
:100BBC00042B00F28F8001A252F823F0DD0B000809
:100BCC00090C0008470C0008770C00089F0C000863
:100BDC00002000F061FA0346002B72D03F4B01223B
:100BEC001A70414B1B683E4A1360404B1B683D4AD0
:100BFC001360FFF737FFFFF71FFF62E0FFF732FFCD
:100C0C00FFF71AFF364B1B68002B0ADC384B1B68AE
:100C1C00334A1360FFF752FFFFF70EFF2F4B0222F0
:100C2C001A70002000F038FA0346002B4BD02B4BE7
:100C3C0008221A70FFF76EFF45E0FFF73FFFFFF742
:100C4C00FBFE284B1B68002B3FDC284B1B68244AFF
:100C5C001360254B1B68234A1360FFF7D7FEFFF781
:100C6C0017FF1E4B03221A702FE0FFF7CFFEFFF782
:100C7C000FFF1C4B1B68002B29DC1D4B1B68194AF2
:100C8C001360FFF7C3FEFFF72FFF144B04221A70FB
:100C9C001DE0FFF7BBFEFFF727FF124B1B68002B75
:100CAC0017DC0E4B01221A70FFF7DCFEFFF7C4FEB7
:100CBC000D4B1B680A4A13600C4B1B68094A1360E6
:100CCC0007E000BF06E000BF04E000BF02E000BF89
:100CDC0000E000BF00BF80BDDC00002058000020F9
:100CEC005000002054000020480000204400002048
:100CFC004C00002080B500AF8A4B1B78053B032BC2
:100D0C0000F20D8101A252F823F000BF590D00082A
:100D1C00790E0008E30D0008290D0008824B002213
:100D2C001A60824B00221A60002000F0B5F90346CD
:100D3C00002B00F0ED807B4B05221A707C4B1B685E
:100D4C00794A1360794B01221A60E1E00020FFF729
:100D5C002DFE012000F0A0F90346002B0BD0724BA6
:100D6C001B680133704A13606F4B1B68632B02DDE9
:100D7C006D4B00221A60012000F09EF90346002BF7
:100D8C000BD0694B1B680533674A1360664B1B68B5
:100D9C00632B02DD644B00221A60022000F07CF908
:100DAC000346002B03D0604B1B68614A1360002084
:100DBC0000F072F90346002B00F0AC80594B07226F
:100DCC001A705C4B1B68584A1360584B02221A600D
:100DDC00FFF7A0FE9EE00120FFF7E8FD012000F0E8
:100DEC005BF90346002B0BD04F4B1B6801334E4A6B
:100DFC0013604D4B1B68632B02DD4B4B00221A60BA
:100E0C00012000F059F90346002B0BD0464B1B6810
:100E1C000533454A1360444B1B68632B02DD424B80
:100E2C0000221A60022000F037F90346002B0AD08A
:100E3C003D4B1B683F4A13603D4B1A683D4B1B688A
:100E4C00D31A3D4A1360002000F026F90346002B0C
:100E5C0062D0344B06221A70374B1B68324A13602F
:100E6C00324B03221A60FFF755FE55E00220FFF7C4
:100E7C009DFD012000F020F90346002B0BD02A4BDE
:100E8C001B680533284A1360274B1B68632B02DD54
:100E9C00254B00221A60012000F0FEF80346002BBF
:100EAC000BD0214B1B6801331F4A13601E4B1B6870
:100EBC00632B02DD1C4B00221A60022000F0ECF8C0
:100ECC000346002B18D0184B1B681B4A13601A4B97
:100EDC001A68174B1B689A4207DB174B1A68154B9D
:100EEC001B681344124A136006E0114B1A68124B2C
:100EFC001B68D31A0F4A1360002000F0CDF803468C
:100F0C00002B0BD0074B00221A70FFF703FE05E0F5
:100F1C0000BF04E000BF02E000BF00E000BF00BF64
:100F2C0080BD00BF5800002050000020540000205D
:100F3C00440000204C0000204800002080B582B006
:100F4C0000AF7860154B5B68012B22D1144A7B688B
:100F5C0052F823305A1E12497B6841F82320104A5C
:100F6C007B6852F82330002B0ADC0E4A7B68012187
:100F7C0042F823100A4A7B680A2142F8231004E045
:100F8C00084A7B68002142F823100A21012000F056
:100F9C0095FA00BF0837BD4680BD00BFDC000020BD
:100FAC0024000020A400002080B582B000AF78603F
:100FBC00354A7B6813441B78022B3ED0022B5FDC36
:100FCC00002B02D0012B16D05AE0304A7B6800214E
:100FDC0042F823102E4A7B68002142F823107868CF
:100FEC0000F006F90346002B45D0274A7B681344D2
:100FFC0001221A703FE0786800F0FAF80346002BE3
:10100C000AD1224A7B68012142F823101E4A7B68D0
:10101C00134400221A7030E0786800F003F903469C
:10102C00002B2AD0184A7B68134402221A70184AE3
:10103C007B68012142F823101FE0154A7B680021D0
:10104C0042F82310114A7B68002142F8231078687B
:10105C00FFF774FF786800F0CBF80346002B0ED135
:10106C00094A7B68134400221A700A4A7B680A21D9
:10107C0042F8231003E000BF02E000BF00E000BF15
:10108C0000BF0837BD4680BDB0000020980000208E
:10109C00A40000202400002080B483B000AF78604E
:1010AC00044A7B6852F8233018460C37BD4680BC86
:1010BC00704700BF9800002080B483B000AF786008
:1010CC00044A7B6852F8233018460C37BD4680BC66
:1010DC00704700BFA400002080B582B000AF002391
:1010EC007B6005E07868FFF75FFF7B6801337B600E
:1010FC007B68022BF6DD00BF00BF0837BD4680BD04
:10110C0090B583B000AF0023FB7158E0FA79FB79FE
:10111C002F49895C2F4AD154FA79FB792E49895C85
:10112C002B4AD154FB792D4A52F82320FB792C49B8
:10113C0031F81330FC791946104600F0A5FD034632
:10114C001A46254B1A55FB79224AD25CFB79204969
:10115C00CB5C9A420DD1FB791D4AD25CFB791E49BE
:10116C00CB5C9A4205D1FA79FB791B49895C1D4A03
:10117C00D154FB791B4AD35C002B14D1FB791A4A4E
:10118C0032F81330632B09D8FB79174A32F8132045
:10119C00013291B2144A22F813100DE0FB79134A74
:1011AC000121D15408E0FB790F4A002122F81310D9
:1011BC00FB790E4A0021D154FB790133FB71FB7989
:1011CC00022BA3D900BF00BF0C37BD4690BD00BF9A
:1011DC00B8000020C0000020BC000020300000201F
:1011EC003C000020B4000020C8000020C4000020F7
:1011FC0080B483B000AF0346FB71FB79022B01D99D
:10120C00002307E0FB79064AD35C002B0CBF0123BB
:10121C000023DBB218460C37BD4680BC704700BFBC
:10122C00B400002080B483B000AF0346FB71FB799F
:10123C00022B01D9FF2307E0FB79064AD35C012B73
:10124C000CBF01230023DBB218460C37BD4680BC13
:10125C00704700BFC400002080B500AF00F02AFA30
:10126C0000F02EF800F0B4F800F066F8104801F029
:10127C007FF96421002000F021F90A21012000F0FF
:10128C001DF93221022000F019F90A4B00221A70C4
:10129C00FFF764FCFFF720FFFFF72CFD064B1B68E4
:1012AC00064A126811461846FFF722FBF0E700BF0A
:1012BC00E8000020580000205000002054000020BE
:1012CC0080B590B000AF07F1180328220021184612
:1012DC0001F0FEFC3B1D00221A605A609A60DA6035
:1012EC001A610223BB610123BB621023FB62002342
:1012FC007B6307F11803184600F00EFD0346002B24
:10130C0001D000F0D5F80F237B600023BB600023D5
:10131C00FB6000233B6100237B613B1D00211846D1
:10132C0000F07AFF0346002B01D000F0C1F800BF9B
:10133C004037BD4680BD000080B586B000AF07F1D8
:10134C00080300221A605A609A60DA603B46002259
:10135C001A605A601D4B4FF080421A601B4B41F6CD
:10136C003F725A60194B00229A60184B0922DA60BE
:10137C00164B00221A61154B00229A61134801F09A
:10138C00A7F80346002B01D000F092F84FF48053DD
:10139C00BB6007F1080319460C4801F025FA034617
:1013AC00002B01D000F084F800233B6000237B600D
:1013BC003B461946054801F0FDFB0346002B01D0C6
:1013CC0000F076F800BF1837BD4680BDE80000205D
:1013DC0080B586B000AF07F1080300221A605A608E
:1013EC009A60DA60294B9B69284A43F004039361A5
:1013FC00264B9B6903F004037B607B68234B9B6942
:10140C00224A43F008039361204B9B6903F00803C5
:10141C003B603B68002241F67E011D4800F04BFC0E
:10142C0000224FF6FF711B4800F045FC41F67E038D
:10143C00BB600123FB6000233B6102237B6107F14E
:10144C0008031946124800F0A5FA4FF4F063BB608C
:10145C000023FB6001233B6107F1080319460C488C
:10146C0000F098FA4FF6FF73BB600123FB6000237A
:10147C003B6102237B6107F108031946054800F024
:10148C0089FA00BF1837BD4680BD00BF001002406E
:10149C0000080140000C014080B582B000AF7860BC
:1014AC0000F024F8FFF72CFE00BF0837BD4680BDC6
:1014BC0080B400AF72B600BFFEE7000080B483B00A
:1014CC0000AF7860396007497B683A6841F823209F
:1014DC00054A7B68002142F8231000BF0C37BD463B
:1014EC0080BC7047D0000020DC00002080B483B0AA
:1014FC0000AF00237B601CE0124A7B6852F823305B
:10150C00002B13DD0F4A7B6852F823305A1E0D490D
:10151C007B6841F823200B4A7B6852F82330002B60
:10152C0004DC094A7B68012142F823107B680133F3
:10153C007B607B68022BDFDD00BF00BF0C37BD4634
:10154C0080BC7047D0000020DC00002080B485B047
:10155C0000AF154B9B69144A43F001039361124B86
:10156C009B6903F00103BB60BB680F4BDB690E4A40
:10157C0043F08053D3610C4BDB6903F080537B60E9
:10158C007B680A4B5B68FB60FB6823F0E063FB60E5
:10159C00FB6843F00073FB60044AFB68536000BFB8
:1015AC001437BD4680BC704700100240000001405B
:1015BC0080B584B000AF78607B681B68B3F1804F56
:1015CC0013D10C4BDB690B4A43F00103D361094B7C
:1015DC00DB6903F00103FB60FB68002200211C2087
:1015EC0000F0A1F91C2000F0BAF900BF1037BD467D
:1015FC0080BD00BF0010024080B400AFFEE780B495
:10160C0000AFFEE780B400AFFEE780B400AFFEE7AA
:10161C0080B400AFFEE780B400AF00BFBD4680BC15
:10162C00704780B400AF00BFBD4680BC704780B42B
:10163C0000AF00BFBD4680BC704780B500AF00F066
:10164C007FF800BF80BD000080B500AF024800F0FD
:10165C00DBFF00BF80BD00BFE800002080B400AFFE
:10166C0000BFBD4680BC7047FFF7F8FF0B480C4924
:10167C000C4A002302E0D458C4500433C4188C42E2
:10168C00F9D3094A094C002301E013600432A24249
:10169C00FBD301F0F9FAFFF7DFFD704700000020E3
:1016AC0068000020302D0008680000203401002064
:1016BC00FEE7000080B500AF084B1B68074A43F0FB
:1016CC0010031360032000F023F90F2000F008F83A
:1016DC00FFF73CFF0023184680BD00BF00200240EE
:1016EC0080B582B000AF7860124B1A68124B1B7831
:1016FC0019464FF47A73B3FBF1F3B2FBF3F31846CC
:10170C0000F03BF90346002B01D001230EE07B686F
:10171C000F2B0AD8002279684FF0FF3000F003F944
:10172C00064A7B681360002300E001231846083743
:10173C00BD4680BD5C0000206400002060000020DD
:10174C0080B400AF054B1B781A46054B1B6813443D
:10175C00034A136000BFBD4680BC70476400002084
:10176C003001002080B400AF024B1B681846BD4608
:10177C0080BC70473001002080B485B000AF786029
:10178C007B6803F00703FB600C4BDB68BB60BA683B
:10179C004FF6FF031340BB60FB681A02BB68134390
:1017AC0043F0BF6343F40033BB60044ABB68D360AF
:1017BC0000BF1437BD4680BC704700BF00ED00E091
:1017CC0080B400AF044BDB681B0A03F00703184618
:1017DC00BD4680BC704700BF00ED00E080B483B014
:1017EC0000AF0346FB7197F90730002B0BDBFB793D
:1017FC0003F01F02064997F907305B09012000FA34
:10180C0002F241F8232000BF0C37BD4680BC704764
:10181C0000E100E080B483B000AF03463960FB7197
:10182C0097F90730002B0ADB3B68DAB20C4997F9C1
:10183C0007301201D2B20B4483F800230AE03B6854
:10184C00DAB20849FB7903F00F03043B1201D2B260
:10185C000B441A7600BF0C37BD4680BC704700BFE6
:10186C0000E100E000ED00E080B489B000AFF8606A
:10187C00B9607A60FB6803F00703FB61FB69C3F195
:10188C000703042B28BF0423BB61FB690433062B1D
:10189C0002D9FB69033B00E000237B614FF0FF3270
:1018AC00BB6902FA03F3DA43BB681A407B699A40BE
:1018BC004FF0FF317B6901FA03F3D9437B680B408E
:1018CC00134318462437BD4680BC704780B582B0A0
:1018DC0000AF78607B68013BB3F1807F01D30123BB
:1018EC000FE00A4A7B68013B53600F214FF0FF3039
:1018FC00FFF790FF054B00229A60044B07221A60F9
:10190C00002318460837BD4680BD00BF10E000E03C
:10191C0080B582B000AF78607868FFF72DFF00BF0C
:10192C000837BD4680BD80B586B000AF0346B960B0
:10193C007A60FB7300237B61FFF742FF78617A6862
:10194C00B9687869FFF790FF024697F90F30114696
:10195C001846FFF75FFF00BF1837BD4680BD80B546
:10196C0082B000AF0346FB7197F907301846FFF7BA
:10197C0035FF00BF0837BD4680BD80B582B000AFD3
:10198C0078607868FFF7A2FF034618460837BD4613
:10199C0080BD000080B48BB000AF7860396000234C
:1019AC007B6200233B6248E101227B6A02FA03F36B
:1019BC00FB613B681B68FA691340BB61BA69FB6940
:1019CC009A4240F037813B685B68A34A93425ED0F1
:1019DC00A14A934275D8A14A934258D09F4A934248
:1019EC006FD89F4A934252D09D4A934269D89D4AE0
:1019FC0093424CD09B4A934263D89B4A934246D025
:101A0C00994A93425DD8122B2AD8122B59D801A28D
:101A1C0052F823F09B1A0008751A0008871A000860
:101A2C00C91A0008CF1A0008CF1A0008CF1A0008EC
:101A3C00CF1A0008CF1A0008CF1A0008CF1A0008D6
:101A4C00CF1A0008CF1A0008CF1A0008CF1A0008C6
:101A5C00CF1A0008CF1A00087D1A0008911A000846
:101A6C00824A934213D02CE03B68DB683B6229E04E
:101A7C003B68DB6804333B6224E03B68DB6808337B
:101A8C003B621FE03B68DB680C333B621AE03B684F
:101A9C009B68002B02D104233B6213E03B689B68DC
:101AAC00012B05D108233B627B68FA691A6109E0B6
:101ABC0008233B627B68FA695A6103E000233B62AE
:101ACC0000E000BFBB69FF2B01D87B6801E07B689D
:101ADC0004337B61BB69FF2B02D87B6A9B0002E05D
:101AEC007B6A083B9B003B617B691A680F213B6951
:101AFC0001FA03F3DB431A40396A3B6901FA03F339
:101B0C001A437B691A603B685B6803F08053002BB7
:101B1C0000F09080564B9B69554A43F0010393614A
:101B2C00534B9B6903F00103BB60BB68514A7B6A52
:101B3C009B08023352F82330FB607B6A03F00303EB
:101B4C009B000F2202FA03F3DB43FA681340FB609D
:101B5C007B68494A93420DD07B68484A934207D030
:101B6C007B68474A934201D1022304E0032302E03D
:101B7C00012300E000237A6A02F0030292009340F2
:101B8C00FA681343FB603B497B6A9B080233FA6893
:101B9C0041F823203B685B6803F48013002B06D0CC
:101BAC00384B9A683749BB6913438B6006E0354B59
:101BBC009A68BB69DB43334913408B603B685B68B5
:101BCC0003F40013002B06D02E4BDA682D49BB69A9
:101BDC001343CB6006E02B4BDA68BB69DB43294926
:101BEC001340CB603B685B6803F40033002B06D0DA
:101BFC00244B5A682349BB6913434B6006E0214BC5
:101C0C005A68BB69DB431F4913404B603B685B68F8
:101C1C0003F48033002B06D01A4B1A681949BB69A0
:101C2C0013430B6006E0174B1A68BB69DB4315497D
:101C3C0013400B607B6A01337B623B681A687B6ADA
:101C4C0022FA03F3002B7FF4AFAE00BF00BF2C379A
:101C5C00BD4680BC704700BF000032100000311040
:101C6C0000002210000021100000121000001110C2
:101C7C00001002400000014000080140000C01402F
:101C8C00001001400004014080B485B000AF7860C2
:101C9C000B467B807B689A687B881340002B02D0B4
:101CAC000123FB7301E00023FB73FB7B1846143705
:101CBC00BD4680BC704780B483B000AF78600B46E3
:101CCC007B8013467B707B78002B03D07A887B68F3
:101CDC001A6103E07B881A047B681A6100BF0C3719
:101CEC00BD4680BC704780B485B000AF78600B46B1
:101CFC007B807B68DB68FB607A88FB6813401A0486
:101D0C00FB68D9437B880B401A437B681A6100BF80
:101D1C001437BD4680BC704780B586B000AF786084
:101D2C007B68002B01D101236CE27B681B6803F0FC
:101D3C000103002B00F08780924B5B6803F00C03CF
:101D4C00042B0CD08F4B5B6803F00C03082B12D1C7
:101D5C008C4B5B6803F48033B3F5803F0BD1894B1C
:101D6C001B6803F40033002B6CD07B685B68002B82
:101D7C0068D1012346E27B685B68B3F5803F06D1EE
:101D8C00804B1B687F4A43F4803313602EE07B68E2
:101D9C005B68002B0CD17B4B1B687A4A23F4803395
:101DAC001360784B1B68774A23F4802313601DE083
:101DBC007B685B68B3F5A02F0CD1724B1B68714A22
:101DCC0043F4802313606F4B1B686E4A43F48033DB
:101DDC0013600BE06B4B1B686A4A23F4803313606F
:101DEC00684B1B68674A23F4802313607B685B682D
:101DFC00002B13D0FFF7B6FC386108E0FFF7B2FCFC
:101E0C0002463B69D31A642B01D90323FAE15D4BDB
:101E1C001B6803F40033002BF0D014E0FFF7A2FC96
:101E2C00386108E0FFF79EFC02463B69D31A642B2D
:101E3C0001D90323E6E1534B1B6803F40033002B59
:101E4C00F0D100E000BF7B681B6803F00203002B9D
:101E5C0063D04C4B5B6803F00C03002B0BD0494B4D
:101E6C005B6803F00C03082B1CD1464B5B6803F436
:101E7C008033002B16D1434B1B6803F00203002B5D
:101E8C0005D07B681B69012B01D00123BAE13D4BC6
:101E9C001B6823F0F8027B685B69DB00394913434C
:101EAC000B603AE07B681B69002B20D0364B01227B
:101EBC001A60FFF757FC386108E0FFF753FC024645
:101ECC003B69D31A022B01D903239BE12D4B1B68D1
:101EDC0003F00203002BF0D02A4B1B6823F0F8020E
:101EEC007B685B69DB00274913430B6015E0264BCD
:101EFC0000221A60FFF736FC386108E0FFF732FC6D
:101F0C0002463B69D31A022B01D903237AE11D4BFC
:101F1C001B6803F00203002BF0D17B681B6803F0F5
:101F2C000803002B3AD07B689B69002B19D0174B08
:101F3C0001221A60FFF716FC386108E0FFF712FC6B
:101F4C0002463B69D31A022B01D903235AE10D4BEC
:101F5C005B6A03F00203002BF0D0012000F09AFA28
:101F6C001CE00A4B00221A60FFF7FCFB38610FE003
:101F7C00FFF7F8FB02463B69D31A022B08D903235F
:101F8C0040E100BF00100240000042428004424287
:101F9C009E4B5B6A03F00203002BE9D17B681B6844
:101FAC0003F00403002B00F0A6800023FB75974B75
:101FBC00DB6903F08053002B0DD1944BDB69934A02
:101FCC0043F08053D361914BDB6903F08053BB60CA
:101FDC00BB680123FB758E4B1B6803F48073002BCD
:101FEC0018D18B4B1B688A4A43F480731360FFF73C
:101FFC00B9FB386108E0FFF7B5FB02463B69D31A21
:10200C00642B01D90323FDE0814B1B6803F480731F
:10201C00002BF0D07B68DB68012B06D17B4B1B6A55
:10202C007A4A43F0010313622DE07B68DB68002BD6
:10203C000CD1764B1B6A754A23F001031362734B68
:10204C001B6A724A23F0040313621CE07B68DB6892
:10205C00052B0CD16D4B1B6A6C4A43F004031362C5
:10206C006A4B1B6A694A43F0010313620BE0674B2E
:10207C001B6A664A23F001031362644B1B6A634AB2
:10208C0023F0040313627B68DB68002B15D0FFF789
:10209C0069FB38610AE0FFF765FB02463B69D31A1E
:1020AC0041F28832934201D90323ABE0574B1B6AB0
:1020BC0003F00203002BEED014E0FFF753FB386162
:1020CC000AE0FFF74FFB02463B69D31A41F2883214
:1020DC00934201D9032395E04C4B1B6A03F0020396
:1020EC00002BEED1FB7D012B05D1484BDB69474A18
:1020FC0023F08053D3617B68DB69002B00F0818077
:10210C00424B5B6803F00C03082B61D07B68DB69E6
:10211C00022B46D13F4B00221A60FFF723FB38619C
:10212C0008E0FFF71FFB02463B69D31A022B01D9CB
:10213C00032367E0354B1B6803F00073002BF0D1D1
:10214C007B681B6AB3F5803F08D1304B5B6823F486
:10215C0000327B689B682D4913434B602B4B5B68AB
:10216C0023F474127B68196A7B685B6A0B432749FA
:10217C0013434B60274B01221A60FFF7F3FA3861C7
:10218C0008E0FFF7EFFA02463B69D31A022B01D99C
:10219C00032337E01D4B1B6803F00073002BF0D0BA
:1021AC002FE01C4B00221A60FFF7DCFA386108E0C4
:1021BC00FFF7D8FA02463B69D31A022B01D9032345
:1021CC0020E0124B1B6803F00073002BF0D118E0D9
:1021DC007B68DB69012B01D1012313E00B4B5B689E
:1021EC00FB60FB6803F480327B681B6A9A4206D161
:1021FC00FB6803F470127B685B6A9A4201D001237E
:10220C0000E0002318461837BD4680BD0010024080
:10221C00007000406000424280B584B000AF78602E
:10222C0039607B68002B01D10123D0E06A4B1B681D
:10223C0003F007033A689A4210D9674B1B6823F0E6
:10224C00070265493B6813430B60634B1B6803F043
:10225C0007033A689A4201D00123B8E07B681B68F7
:10226C0003F00203002B20D07B681B6803F00403EF
:10227C00002B05D0594B5B68584A43F4E06353601C
:10228C007B681B6803F00803002B05D0534B5B687D
:10229C00524A43F460535360504B5B6823F0F00296
:1022AC007B689B684D4913434B607B681B6803F04C
:1022BC000103002B40D07B685B68012B07D1474B97
:1022CC001B6803F40033002B15D101237FE07B68DE
:1022DC005B68022B07D1414B1B6803F00073002B8A
:1022EC0009D1012373E03D4B1B6803F00203002B63
:1022FC0001D101236BE0394B5B6823F003027B684F
:10230C005B68364913434B60FFF72CFAF8600AE020
:10231C00FFF728FA0246FB68D31A41F2883293423F
:10232C0001D9032353E02D4B5B6803F00C027B684F
:10233C005B689B009A42EBD1274B1B6803F00703A9
:10234C003A689A4210D2244B1B6823F007022249A8
:10235C003B6813430B60204B1B6803F007033A6880
:10236C009A4201D0012332E07B681B6803F004031E
:10237C00002B08D0194B5B6823F4E0627B68DB68A8
:10238C00164913434B607B681B6803F00803002B52
:10239C0009D0124B5B6823F460527B681B69DB002D
:1023AC000E4913434B6000F021F802460B4B5B685F
:1023BC001B0903F00F030A49CB5C22FA03F3094A09
:1023CC001360094B1B681846FFF78AF9002318465F
:1023DC001037BD4680BD00BF0020024000100240F7
:1023EC00042D00085C0000206000002080B487B041
:1023FC0000AF0023FB600023BB6000237B61002344
:10240C007B6000233B611E4B5B68FB60FB6803F049
:10241C000C03042B02D0082B03D027E0194B3B6193
:10242C0027E0FB689B0C03F00F03174AD35C7B601F
:10243C00FB6803F48033002B10D0114B5B685B0CF2
:10244C0003F00103114AD35CBB607B680D4A02FBAD
:10245C0003F2BB68B2FBF3F37B6104E07B680C4ACC
:10246C0002FB03F37B617B693B6102E0054B3B6143
:10247C0000BF3B6918461C37BD4680BC704700BF87
:10248C000010024000127A00142D0008242D0008C0
:10249C0000093D0080B485B000AF78600A4B1B6822
:1024AC000A4AA2FB03235B0A7A6802FB03F3FB6074
:1024BC0000BFFB685A1EFA60002BF9D100BF00BFA9
:1024CC001437BD4680BC70475C000020D34D6210B1
:1024DC0080B582B000AF78607B68002B01D10123FE
:1024EC0041E07B6893F83D30DBB2002B06D17B6872
:1024FC00002283F83C207868FFF75AF87B680222A8
:10250C0083F83D207B681A687B68043319461046B3
:10251C0000F056FA7B68012283F846207B68012282
:10252C0083F83E207B68012283F83F207B680122E0
:10253C0083F840207B68012283F841207B680122CC
:10254C0083F842207B68012283F843207B680122B8
:10255C0083F844207B68012283F845207B680122A4
:10256C0083F83D20002318460837BD4680BD000087
:10257C0080B485B000AF78607B6893F83D30DBB2F7
:10258C00012B01D0012335E07B68022283F83D202A
:10259C007B681B68DA687B681B6842F00102DA60B2
:1025AC007B681B68164A934209D07B681B68B3F1A1
:1025BC00804F04D07B681B68124A934211D17B6810
:1025CC001B689B6803F00703FB60FB68062B10D0AD
:1025DC007B681B681A687B681B6842F001021A60F2
:1025EC0007E07B681B681A687B681B6842F0010275
:1025FC001A60002318461437BD4680BC704700BFD4
:10260C00002C01400004004080B584B000AF78601D
:10261C007B681B68DB68FB607B681B681B69BB60A5
:10262C00BB6803F00203002B20D0FB6803F002030D
:10263C00002B1BD07B681B686FF002021A617B6851
:10264C0001221A777B681B689B6903F00303002B3C
:10265C0003D0786800F098F905E0786800F08BF901
:10266C00786800F09AF97B6800221A77BB6803F04F
:10267C000403002B20D0FB6803F00403002B1BD0B9
:10268C007B681B686FF004021A617B6802221A7760
:10269C007B681B689B6903F44073002B03D078683C
:1026AC0000F072F905E0786800F065F9786800F0E0
:1026BC0074F97B6800221A77BB6803F00803002BBF
:1026CC0020D0FB6803F00803002B1BD07B681B6831
:1026DC006FF008021A617B6804221A777B681B680A
:1026EC00DB6903F00303002B03D0786800F04CF98E
:1026FC0005E0786800F03FF9786800F04EF97B68E7
:10270C0000221A77BB6803F01003002B20D0FB6863
:10271C0003F01003002B1BD07B681B686FF01002BA
:10272C001A617B6808221A777B681B68DB6903F4E3
:10273C004073002B03D0786800F026F905E0786828
:10274C0000F019F9786800F028F97B6800221A77F4
:10275C00BB6803F00103002B0CD0FB6803F00103F2
:10276C00002B07D07B681B686FF001021A61786838
:10277C00FEF792FEBB6803F08003002B0CD0FB68C5
:10278C0003F08003002B07D07B681B686FF080027E
:10279C001A61786800F06FFABB6803F04003002BF5
:1027AC000CD0FB6803F04003002B07D07B681B6840
:1027BC006FF040021A61786800F0F8F8BB6803F01B
:1027CC002003002B0CD0FB6803F02003002B07D058
:1027DC007B681B686FF020021A61786800F042FA7F
:1027EC0000BF1037BD4680BD80B584B000AF7860A7
:1027FC0039600023FB737B6893F83C30012B01D1CB
:10280C000223B4E07B68012283F83C207B6802221F
:10281C0083F83D207B681B689B68BB60BB6823F01A
:10282C007703BB60BB6823F47F43BB607B681B688A
:10283C00BA689A603B681B68B3F5005F3ED0B3F58D
:10284C00005F00F28780B3F5805F00F08680B3F5FF
:10285C00805F7FD8702B1AD0702B7BD8602B50D018
:10286C00602B77D8502B3CD0502B73D8402B58D0A2
:10287C00402B6FD8302B64D0302B6BD8202B60D0F2
:10288C00202B67D8002B5CD0102B5AD062E07B68D1
:10289C0018683B6899683B685A683B68DB6800F0CD
:1028AC006AF97B681B689B68BB60BB6843F0770365
:1028BC00BB607B681B68BA689A604FE07B681868DD
:1028CC003B6899683B685A683B68DB6800F053F9D1
:1028DC007B681B689A687B681B6842F480429A602C
:1028EC003CE07B6818683B6859683B68DB681A46B3
:1028FC0000F0CAF87B681B685021184600F021F9DB
:10290C002CE07B6818683B6859683B68DB681A46A2
:10291C0000F0E8F87B681B686021184600F011F99C
:10292C001CE07B6818683B6859683B68DB681A4692
:10293C0000F0AAF87B681B684021184600F001F9EA
:10294C000CE07B681A683B681B681946104600F05F
:10295C00F8F803E00123FB7300E000BF7B68012261
:10296C0083F83D207B68002283F83C20FB7B1846D3
:10297C001037BD4680BD80B483B000AF786000BF17
:10298C000C37BD4680BC704780B483B000AF786014
:10299C0000BF0C37BD4680BC704780B483B000AF1D
:1029AC00786000BF0C37BD4680BC704780B483B0E4
:1029BC0000AF786000BF0C37BD4680BC704700008C
:1029CC0080B485B000AF786039607B681B68FB60B1
:1029DC007B682B4A934207D07B68B3F1804F03D0BE
:1029EC007B68284A934208D1FB6823F07003FB6094
:1029FC003B685B68FA681343FB607B68204A934230
:102A0C0007D07B68B3F1804F03D07B681D4A93429B
:102A1C0008D1FB6823F44073FB603B68DB68FA6801
:102A2C001343FB60FB6823F080023B685B69134334
:102A3C00FB607B68FA681A603B689A687B68DA62AC
:102A4C003B681A687B689A627B680D4A934203D193
:102A5C003B681A697B681A637B6801225A617B6840
:102A6C001B6903F00103002B05D07B681B6923F065
:102A7C0001027B681A6100BF1437BD4680BC7047E9
:102A8C00002C01400004004080B487B000AFF86017
:102A9C00B9607A60FB681B6A7B61FB681B6A23F078
:102AAC000102FB681A62FB689B693B613B6923F07E
:102ABC00F0033B617B681B013A6913433B617B6903
:102ACC0023F00A037B617A69BB6813437B61FB6863
:102ADC003A699A61FB687A691A6200BF1C37BD4675
:102AEC0080BC704780B487B000AFF860B9607A6082
:102AFC00FB681B6A7B61FB681B6A23F01002FB6896
:102B0C001A62FB689B693B613B6923F470433B6130
:102B1C007B681B033A6913433B617B6923F0A00379
:102B2C007B61BB681B017A6913437B61FB683A6963
:102B3C009A61FB687A691A6200BF1C37BD4680BC7B
:102B4C00704780B485B000AF786039607B689B6853
:102B5C00FB60FB6823F07003FB603A68FB6813436F
:102B6C0043F00703FB607B68FA689A6000BF143778
:102B7C00BD4680BC704780B487B000AFF860B960C8
:102B8C007A603B60FB689B687B617B6923F47F43C5
:102B9C007B613B681A027B681A43BB6813437A69F2
:102BAC0013437B61FB687A699A6000BF1C37BD4692
:102BBC0080BC704780B485B000AF786039607B68AA
:102BCC0093F83C30012B01D1022341E07B680122B8
:102BDC0083F83C207B68022283F83D207B681B68CD
:102BEC005B68FB607B681B689B68BB60FB6823F0C1
:102BFC007003FB603B681B68FA681343FB607B68DF
:102C0C001B68FA685A607B681B68144A934209D0A7
:102C1C007B681B68B3F1804F04D07B681B68104A3B
:102C2C0093420CD1BB6823F08003BB603B685B68AC
:102C3C00BA681343BB607B681B68BA689A607B6890
:102C4C00012283F83D207B68002283F83C2000237E
:102C5C0018461437BD4680BC704700BF002C01409D
:102C6C000004004080B483B000AF786000BF0C3724
:102C7C00BD4680BC704780B483B000AF786000BFA5
:102C8C000C37BD4680BC704770B500260C4D0D4C02
:102C9C00641BA410A64209D100F022F800260A4DAC
:102CAC000A4C641BA410A64205D170BD55F8043B18
:102CBC0098470136EEE755F8043B98470136F2E7A2
:102CCC00282D0008282D0008282D00082C2D000880
:102CDC0003460244934200D1704703F8011BF9E705
:102CEC00F8B500BFF8BC08BC9E467047F8B500BFED
:082CFC00F8BC08BC9E467047BD
:102D04000000000000000000010203040607080997
:102D140002030405060708090A0B0C0D0E0F101018
:042D240001020000A8
:042D2800310100086D
:042D2C000D0100088D
:102D3000000801400008014000080140000801406F
:102D400000080140000801400200040008001000D3
:102D5000200040000A0000000A0000000A000000F5
:102D60000008014000080140000801408000000107
:102D70000002000005000000030000000200000047
:102D800001000000010000000500000000127A00B0
:082D900010000000010000002A
:040000050800167564
:00000001FF
