:020000040800F2
:100000000028002099130008291300082F13000866
:10001000351300083B1300084113000800000000DE
:10002000000000000000000000000000471300086E
:1000300053130008000000005F1300086B13000852
:10004000E1130008E1130008E1130008E1130008C0
:10005000E1130008E1130008E1130008E1130008B0
:10006000E1130008E1130008E1130008E1130008A0
:10007000E1130008E1130008E1130008E113000890
:10008000E1130008E1130008E1130008E113000880
:10009000E1130008E1130008E1130008E113000870
:1000A000E1130008E1130008E1130008E113000860
:1000B00079130008E113000800000000E1130008B4
:1000C000E11300080000000000000000E113000838
:1000D00000000000E1130008E11300080000000028
:1000E000E1130008E1130008E1130008000000001C
:1000F0000000000000000000000000000000000000
:0C01000000000000000000005FF808F1A3
:10010C0010B5054C237833B9044B13B10448AFF345
:10011C0000800123237010BD2C0000200000000083
:10012C00E429000808B5034B1BB103490348AFF39E
:10013C00008008BD0000000030000020E429000809
:10014C0080B582B000AF78607B68092B00F28081AB
:10015C0001A252F823F000BF8D010008D501000860
:10016C001D02000865020008AD020008F502000837
:10017C003D03000885030008CD03000815040008A2
:10018C0000220121B74801F011FC00220221B548E0
:10019C0001F00CFC00220421B24801F007FC002203
:1001AC000821B04801F002FC00221021AD4801F0FA
:1001BC00FDFB00222021AB4801F0F8FB012240217D
:1001CC00A84801F0F3FB49E101220121A54801F007
:1001DC00EDFB00220221A34801F0E8FB00220421E0
:1001EC00A04801F0E3FB012208219E4801F0DEFB50
:1001FC00012210219B4801F0D9FB012220219948B2
:10020C0001F0D4FB01224021964801F0CFFB25E1FF
:10021C0000220121934801F0C9FB002202219148E0
:10022C0001F0C4FB012204218E4801F0BFFB002227
:10023C0008218C4801F0BAFB00221021894801F0FA
:10024C00B5FB01222021874801F0B0FB00224021A0
:10025C00844801F0ABFB01E100220121814801F04F
:10026C00A5FB002202217F4801F0A0FB0022042103
:10027C007C4801F09BFB002208217A4801F096FB98
:10028C0001221021774801F091FB012220217548B1
:10029C0001F08CFB00224021724801F087FBDDE06D
:1002AC00012201216F4801F081FB002202216D48DF
:1002BC0001F07CFB002204216A4801F077FB01224B
:1002CC000821684801F072FB01221021654801F0F9
:1002DC006DFB00222021634801F068FB00224021C5
:1002EC00604801F063FBB9E0002201215D4801F098
:1002FC005DFB012202215B4801F058FB0022042126
:10030C00584801F053FB00220821564801F04EFBDF
:10031C0001221021534801F049FB002220215148B1
:10032C0001F044FB002240214E4801F03FFB95E0D8
:10033C00002201214B4801F039FB012202214948DE
:10034C0001F034FB00220421464801F02FFB00226F
:10035C000821444801F02AFB00221021414801F0F9
:10036C0025FB002220213F4801F020FB00224021E8
:10037C003C4801F01BFB71E000220121394801F0DF
:10038C0015FB00220221374801F010FB002204214A
:10039C00344801F00BFB01220821324801F006FB26
:1003AC00012210212F4801F001FB012220212D48B0
:1003BC0001F0FCFA012240212A4801F0F7FA4DE045
:1003CC0000220121274801F0F1FA002202212548E0
:1003DC0001F0ECFA00220421224801F0E7FA002295
:1003EC000821204801F0E2FA002210211D4801F0FA
:1003FC00DDFA002220211B4801F0D8FA002240210E
:10040C00184801F0D3FA29E000220121154801F027
:10041C00CDFA00220221134801F0C8FA002204216F
:10042C00104801F0C3FA002208210E4801F0BEFA70
:10043C00012210210B4801F0B9FA002220210948B1
:10044C0001F0B4FA00224021064801F0AFFA05E0B1
:10045C0001227F21034801F0A9FA00BF00BF083731
:10046C00BD4680BD000C014080B400AF1A4B1B6828
:10047C001A4A82FB03129210DB17D31A184A136024
:10048C00154B1968154B83FB01239A10CB17D21A05
:10049C0013469B0013445B00CA1A114B5A60114B54
:1004AC001B680E4A82FB03129210DB17D31A0C4AFC
:1004BC0093600C4B1968094B83FB01239A10CB17E3
:1004CC00D21A13469B0013445B00CA1A044BDA6021
:1004DC0000BFBD4680BC7047100000206766666692
:1004EC00000000201400002080B483B000AF7860BE
:1004FC00074B1B687A6892FBF3F3064A1360064BB2
:10050C0000221A6000BF0C37BD4680BC704700BF8C
:10051C001C000020580000205C00002080B483B038
:10052C0000AF7860074B1B687A6892FBF3F3064ABE
:10053C001360064B00221A6000BF0C37BD4680BC0E
:10054C00704700BF1C0000206000002064000020E9
:10055C0080B582B000AF78607B68032B01DD00238F
:10056C007B607B68032B7BD801A252F823F000BF81
:10057C008D050008C5050008FD05000835060008B6
:10058C0000224021454801F011FA01228021434804
:10059C0001F00CFA01224FF48071404801F006FA88
:1005AC0001224FF400713D4801F000FA3C4B1B68EE
:1005BC001846FFF7C5FD6DE001224021374801F0D8
:1005CC00F5F900228021354801F0F0F901224FF4B1
:1005DC008071324801F0EAF901224FF400712F4882
:1005EC0001F0E4F92E4B5B681846FFF7A9FD51E0CA
:1005FC0001224021294801F0D9F901228021274804
:10060C0001F0D4F900224FF48071244801F0CEF9A6
:10061C0001224FF40071214801F0C8F9204B9B686E
:10062C001846FFF78DFD35E0012240211B4801F0F3
:10063C00BDF901228021194801F0B8F901224FF4CB
:10064C008071164801F0B2F900224FF40071134882
:10065C0001F0ACF9124BDB681846FFF771FD19E09D
:10066C00012240210D4801F0A1F9012280210B4803
:10067C0001F09CF901224FF48071084801F096F9C1
:10068C0001224FF40071054801F090F90020FFF7AA
:10069C0057FD00BF00BF0837BD4680BD00080140B4
:1006AC000000002080B483B000AF7860054B0022BE
:1006BC001A60054A7B68136000BF0C37BD4680BCCE
:1006CC00704700BF4C0000204800002080B483B06D
:1006DC0000AF7860054B00221A60054A7B681360F6
:1006EC0000BF0C37BD4680BC704700BF54000020D3
:1006FC005000002080B400AF214B1B68002B0BDD99
:10070C001F4B1B68013B1E4A13601D4B1B68002BC3
:10071C0002D11C4B01221A601B4B1B68002B0BDDFA
:10072C00194B1B68013B184A1360174B1B68002BB5
:10073C0002D1164B01221A60154B1B68002B0BDDE6
:10074C00134B1B68013B124A1360114B1B68002BA7
:10075C0002D1104B01221A600F4B1B68002B0BDDD2
:10076C000D4B1B68013B0C4A13600B4B1B68002B99
:10077C0002D10A4B01221A6000BFBD4680BC7047F3
:10078C00480000204C0000205000002054000020A5
:10079C00580000205C000020600000206400002055
:1007AC0080B582B000AF7860C7F800C07B68072BBB
:1007BC0001DD00237B607B68072B00F28B8101A29B
:1007CC0052F823F0F10700084F080008AD080008A4
:1007DC000B09000869090008C7090008250A000868
:1007EC00830A000800220421D44801F0DFF801221A
:1007FC000821D24801F0DAF801224FF48061CF4889
:10080C0001F0D4F801224FF40061CC4801F0CEF88D
:10081C0001224FF48051C94801F0C8F801224FF46D
:10082C000051C64801F0C2F801224FF48041C34880
:10083C0001F0BCF801224FF40041C04801F0B6F8B9
:10084C0077E101220421BD4801F0B0F80022082113
:10085C00BA4801F0ABF801224FF48061B74801F0BF
:10086C00A5F801224FF40061B44801F09FF8012271
:10087C004FF48051B14801F099F801224FF4005126
:10088C00AE4801F093F801224FF48041AB4801F0DF
:10089C008DF801224FF40041A84801F087F848E197
:1008AC0001220421A54801F081F801220821A34866
:1008BC0001F07CF800224FF48061A04801F076F83A
:1008CC0001224FF400619D4801F070F801224FF4B1
:1008DC0080519A4801F06AF801224FF40051974870
:1008EC0001F064F801224FF48041944801F05EF865
:1008FC0001224FF40041914801F058F819E101220E
:10090C0004218E4801F052F8012208218B4801F095
:10091C004DF801224FF48061884801F047F800221D
:10092C004FF40061854801F041F801224FF48051E9
:10093C00824801F03BF801224FF400517F4801F04E
:10094C0035F801224FF480417C4801F02FF8012248
:10095C004FF40041794801F029F8EAE00122042122
:10096C00764801F023F801220821744801F01EF8A2
:10097C0001224FF48061714801F018F801224FF404
:10098C0000616E4801F012F800224FF480516B4860
:10099C0001F00CF801224FF40051684801F006F800
:1009AC0001224FF48041654801F000F801224FF418
:1009BC000041624800F0FAFFBBE0012204215F48CD
:1009CC0000F0F4FF012208215C4800F0EFFF012247
:1009DC004FF48061594800F0E9FF01224FF40061A7
:1009EC00564800F0E3FF01224FF48051534800F0C9
:1009FC00DDFF00224FF40051504800F0D7FF0122D8
:100A0C004FF480414D4800F0D1FF01224FF40041DA
:100A1C004A4800F0CBFF8CE001220421474800F04B
:100A2C00C5FF01220821454800F0C0FF01224FF408
:100A3C008061424800F0BAFF01224FF400613F4848
:100A4C0000F0B4FF01224FF480513C4800F0AEFF9F
:100A5C0001224FF40051394800F0A8FF00224FF456
:100A6C008041364800F0A2FF01224FF40041334888
:100A7C0000F09CFF5DE001220421304800F096FF5D
:100A8C00012208212D4800F091FF01224FF48061D2
:100A9C002A4800F08BFF01224FF40061274800F038
:100AAC0085FF01224FF48051244800F07FFF012282
:100ABC004FF40051214800F079FF01224FF480419E
:100ACC001E4800F073FF00224FF400411B4800F059
:100ADC006DFF2EE001220421184800F067FF01226F
:100AEC000821164800F062FF01224FF48061134880
:100AFC0000F05CFF01224FF40061104800F056FF3B
:100B0C0001224FF480510D4800F050FF01224FF4A8
:100B1C0000510A4800F04AFF01224FF48041074877
:100B2C0000F044FF01224FF40041044800F03EFF66
:100B3C0000BF00BF0837BD4680BD00BF00080140A4
:100B4C0080B588B000AF07F12803FB6000F044FCCF
:100B5C0000F0A0FA00F026FB00F0D8FA4C4801F0A7
:100B6C0083FB08237B6100233B614A4A3B1D92E8CF
:100B7C00030083E803000220FFF794FD0023FB61D0
:100B8C006420FFF7A3FD0023BB614FF47A70FFF7DD
:100B9C00ABFC4FF47A70FFF7C1FC3F4B1B68012B89
:100BAC0031D14FF47A70FFF79FFC20213B4800F0C5
:100BBC0015FF1021394800F011FF394B1B68013328
:100BCC00374A1360364B1B683B2B07DD344B002236
:100BDC001A60344B1B680133324A1360314B1B686B
:100BEC003B2B07DD2F4B00221A602F4B1B68013368
:100BFC002D4A13602C4B1B68172B02DD2A4B00224D
:100C0C001A60FFF731FC294B1B68012B11D1FA201C
:100C1C00FFF784FC264B1B685A1C25490A601846B2
:100C2C00FFF796FC224B1B68032B02DD204B0022A6
:100C3C001A60204B1B68012B19D10220FFF732FDE3
:100C4C0007F10C039C46F869FFF7AAFDFA69BB692A
:100C5C00134407F10C029446184600F02FF8FB6978
:100C6C000133FB61FB69072B01DD0023FB61124B98
:100C7C001B68012B91D16420FFF728FDBB69013360
:100C8C00BB61BB69072B88DD0023BB6185E700BF17
:100C9C006C000020FC2900085C00002000080140CA
:100CAC001800002014000020100000206400002018
:100CBC00680000204C0000205400002080B582B059
:100CCC0000AF7860C7F800C07B68072B08DD7B6835
:100CDC005A4203F0070302F0070258BF53427B60ED
:100CEC007B68072B00F29E8101A252F823F000BF13
:100CFC001D0D00087F0D0008E10D0008430E0008D3
:100D0C00A50E0008070F0008690F0008CB0F00089C
:100D1C0001224FF48071C24800F048FE01224FF4CA
:100D2C000071BF4800F042FE01224FF48061BC48C4
:100D3C0000F03CFE01224FF40061B94800F036FE91
:100D4C0001224FF48051B64800F030FE01224FF4DE
:100D5C000051B34800F02AFE01224FF48041B04804
:100D6C0000F024FE01224FF40041AD4800F01EFEBD
:100D7C0089E101224FF48071A94800F017FE01228D
:100D8C004FF40071A64800F011FE00224FF4806170
:100D9C00A34800F00BFE00224FF40061A04800F0C5
:100DAC0005FE00224FF480519D4800F0FFFD00220B
:100DBC004FF400519A4800F0F9FD00224FF48041A5
:100DCC00974800F0F3FD01224FF40041944800F0E5
:100DDC00EDFD58E101224FF48071914800F0E6FDE1
:100DEC0000224FF400718E4800F0E0FD01224FF418
:100DFC0080618B4800F0DAFD01224FF400618848D5
:100E0C0000F0D4FD00224FF48051854800F0CEFD57
:100E1C0001224FF40051824800F0C8FD01224FF42A
:100E2C0080417F4800F0C2FD01224FF400417C4814
:100E3C0000F0BCFD27E100224FF48071784800F0EF
:100E4C00B5FD01224FF40071754800F0AFFD012291
:100E5C004FF48061724800F0A9FD01224FF400614B
:100E6C006F4800F0A3FD00224FF480516C4800F055
:100E7C009DFD01224FF40051694800F097FD0122BD
:100E8C004FF48041664800F091FD01224FF400417F
:100E9C00634800F08BFDF6E000224FF4807160484F
:100EAC0000F084FD01224FF400715D4800F07EFDDE
:100EBC0001224FF480615A4800F078FD01224FF472
:100ECC000061574800F072FD00224FF480515448E5
:100EDC0000F06CFD01224FF40051514800F066FD0A
:100EEC0001224FF480414E4800F060FD01224FF486
:100EFC0000414B4800F05AFDC5E001224FF48071CF
:100F0C00474800F053FD00224FF40071444800F0B4
:100F1C004DFD01224FF48061414800F047FD012254
:100F2C004FF400613E4800F041FD00224FF4805127
:100F3C003B4800F03BFD01224FF40051384800F0D3
:100F4C0035FD01224FF48041354800F02FFD012280
:100F5C004FF40041324800F029FD94E001224FF497
:100F6C0080712F4800F022FD01224FF400712C48B3
:100F7C0000F01CFD00224FF48061294800F016FDA2
:100F8C0000224FF40061264800F010FD00224FF4BF
:100F9C008051234800F00AFD00224FF400512048F4
:100FAC0000F004FD00224FF480411D4800F0FEFCCF
:100FBC0001224FF400411A4800F0F8FC63E00122D2
:100FCC004FF48071164800F0F1FC01224FF40071CF
:100FDC00134800F0EBFC01224FF48061104800F044
:100FEC00E5FC01224FF400610D4800F0DFFC01220A
:100FFC004FF480510A4800F0D9FC01224FF4005103
:10100C00074800F0D3FC01224FF48041044800F063
:10101C00CDFC01224FF40041014800F0C7FC32E046
:10102C00000C014001224FF48071194800F0BEFC05
:10103C0001224FF40071164800F0B8FC01224FF465
:10104C008061134800F0B2FC01224FF4006110489B
:10105C0000F0ACFC01224FF480510D4800F0A6FCCE
:10106C0001224FF400510A4800F0A0FC01224FF479
:10107C008041074800F09AFC01224FF400410448DB
:10108C0000F094FC00BF00BF0837BD4680BD00BF18
:10109C00000C014080B590B000AF07F11803282276
:1010AC000021184601F090FC3B1D00221A605A608A
:1010BC009A60DA601A610223BB610123BB621023C0
:1010CC00FB6200237B6307F11803184600F0A0FCB9
:1010DC000346002B01D000F0C5F80F237B600023E2
:1010EC00BB600023FB6000233B6100237B613B1D45
:1010FC000021184600F00CFF0346002B01D000F035
:10110C00B1F800BF4037BD4680BD000080B586B049
:10111C0000AF07F1080300221A605A609A60DA6087
:10112C003B4600221A605A601D4B4FF080421A60F9
:10113C001B4B41F63F725A60194B00229A60184BB8
:10114C000922DA60164B00221A61154B00229A61B3
:10115C00134801F039F80346002B01D000F082F857
:10116C004FF48053BB6007F1080319460C4801F09B
:10117C00B7F90346002B01D000F074F800233B6054
:10118C0000237B603B461946054801F08FFB034664
:10119C00002B01D000F066F800BF1837BD4680BDAB
:1011AC006C00002080B586B000AF07F10803002268
:1011BC001A605A609A60DA60224B9B69214A43F0AC
:1011CC00040393611F4B9B6903F004037B607B68F2
:1011DC001C4B9B691B4A43F008039361194B9B6999
:1011EC0003F008033B603B6800224FF6FC71164885
:1011FC0000F0DCFB00224FF67F71144800F0D6FBA8
:10120C004FF6FC73BB600123FB6000233B610223A0
:10121C007B6107F1080319460B4800F04DFA4FF6B5
:10122C007F73BB600123FB6000233B6102237B6166
:10123C0007F108031946054800F03EFA00BF1837BD
:10124C00BD4680BD0010024000080140000C01406A
:10125C0080B582B000AF7860FFF74CFA00BF08375A
:10126C00BD4680BD80B400AF72B600BFFEE7000083
:10127C0080B485B000AF154B9B69144A43F0010351
:10128C009361124B9B6903F00103BB60BB680F4B6E
:10129C00DB690E4A43F08053D3610C4BDB6903F0DE
:1012AC0080537B607B680A4B5B68FB60FB6823F0B8
:1012BC00E063FB60FB6843F08063FB60044AFB68FF
:1012CC00536000BF1437BD4680BC7047001002400D
:1012DC000000014080B584B000AF78607B681B686B
:1012EC00B3F1804F13D10C4BDB690B4A43F0010374
:1012FC00D361094BDB6903F00103FB60FB6800223F
:10130C0000211C2000F0A1F91C2000F0BAF900BF4C
:10131C001037BD4680BD00BF0010024080B400AF46
:10132C00FEE780B400AFFEE780B400AFFEE780B408
:10133C0000AFFEE780B400AFFEE780B400AF00BFA3
:10134C00BD4680BC704780B400AF00BFBD4680BCBA
:10135C00704780B400AF00BFBD4680BC704780B5FD
:10136C0000AF00F07FF800BF80BD000080B500AF7B
:10137C00024800F0C5FF00BF80BD00BF6C0000201C
:10138C0080B400AF00BFBD4680BC7047FFF7F8FFCC
:10139C000B480C490C4A002302E0D458C4500433C7
:1013AC00C4188C42F9D3094A094C002301E013609C
:1013BC000432A242FBD301F0E3FAFFF7C1FB704702
:1013CC00000000202C000020302A00082C000020F7
:1013DC00B8000020FEE7000080B500AF084B1B688A
:1013EC00074A43F010031360032000F023F90F2089
:1013FC0000F008F8FFF73CFF0023184680BD00BF43
:10140C000020024080B582B000AF7860124B1A68A1
:10141C00124B1B7819464FF47A73B3FBF1F3B2FB02
:10142C00F3F3184600F03BF90346002B01D00123DF
:10143C000EE07B680F2B0AD8002279684FF0FF3042
:10144C0000F003F9064A7B681360002300E00123D7
:10145C0018460837BD4680BD20000020280000201B
:10146C002400002080B400AF054B1B781A46054BB6
:10147C001B681344034A136000BFBD4680BC704711
:10148C0028000020B400002080B400AF024B1B6881
:10149C001846BD4680BC7047B400002080B485B0AF
:1014AC0000AF78607B6803F00703FB600C4BDB68D4
:1014BC00BB60BA684FF6FF031340BB60FB681A02AF
:1014CC00BB68134343F0BF6343F40033BB60044A6F
:1014DC00BB68D36000BF1437BD4680BC704700BFEB
:1014EC0000ED00E080B400AF044BDB681B0A03F096
:1014FC0007031846BD4680BC704700BF00ED00E0F6
:10150C0080B483B000AF0346FB7197F90730002B12
:10151C000BDBFB7903F01F02064997F907305B09D7
:10152C00012000FA02F241F8232000BF0C37BD461F
:10153C0080BC704700E100E080B483B000AF03468C
:10154C003960FB7197F90730002B0ADB3B68DAB284
:10155C000C4997F907301201D2B20B4483F80023DF
:10156C000AE03B68DAB20849FB7903F00F03043B4D
:10157C001201D2B20B441A7600BF0C37BD4680BCA8
:10158C00704700BF00E100E000ED00E080B489B0DE
:10159C0000AFF860B9607A60FB6803F00703FB6189
:1015AC00FB69C3F10703042B28BF0423BB61FB6950
:1015BC000433062B02D9FB69033B00E000237B615B
:1015CC004FF0FF32BB6902FA03F3DA43BB681A40EF
:1015DC007B699A404FF0FF317B6901FA03F3D943E1
:1015EC007B680B40134318462437BD4680BC7047BC
:1015FC0080B582B000AF78607B68013BB3F1807F2F
:10160C0001D301230FE00A4A7B68013B53600F2191
:10161C004FF0FF30FFF790FF054B00229A60044B10
:10162C0007221A60002318460837BD4680BD00BF4C
:10163C0010E000E080B582B000AF78607868FFF70A
:10164C002DFF00BF0837BD4680BD80B586B000AF0A
:10165C000346B9607A60FB7300237B61FFF742FF9E
:10166C0078617A68B9687869FFF790FF024697F954
:10167C000F3011461846FFF75FFF00BF1837BD4605
:10168C0080BD80B582B000AF0346FB7197F907307F
:10169C001846FFF735FF00BF0837BD4680BD80B543
:1016AC0082B000AF78607868FFF7A2FF0346184657
:1016BC000837BD4680BD000080B48BB000AF7860A9
:1016CC00396000237B6200233B6248E101227B6A84
:1016DC0002FA03F3FB613B681B68FA691340BB61B8
:1016EC00BA69FB699A4240F037813B685B68A34A50
:1016FC0093425ED0A14A934275D8A14A934258D0E6
:10170C009F4A93426FD89F4A934252D09D4A93422C
:10171C0069D89D4A93424CD09B4A934263D89B4ACA
:10172C00934246D0994A93425DD8122B2AD8122B59
:10173C0059D801A252F823F0BF17000899170008D6
:10174C00AB170008ED170008F3170008F317000893
:10175C00F3170008F3170008F3170008F317000835
:10176C00F3170008F3170008F3170008F317000825
:10177C00F3170008F3170008F3170008A117000867
:10178C00B5170008824A934213D02CE03B68DB6803
:10179C003B6229E03B68DB6804333B6224E03B6836
:1017AC00DB6808333B621FE03B68DB680C333B6251
:1017BC001AE03B689B68002B02D104233B6213E0C8
:1017CC003B689B68012B05D108233B627B68FA6957
:1017DC001A6109E008233B627B68FA695A6103E0ED
:1017EC0000233B6200E000BFBB69FF2B01D87B6884
:1017FC0001E07B6804337B61BB69FF2B02D87B6AF9
:10180C009B0002E07B6A083B9B003B617B691A688A
:10181C000F213B6901FA03F3DB431A40396A3B6938
:10182C0001FA03F31A437B691A603B685B6803F0A7
:10183C008053002B00F09080564B9B69554A43F027
:10184C0001039361534B9B6903F00103BB60BB68BD
:10185C00514A7B6A9B08023352F82330FB607B6A47
:10186C0003F003039B000F2202FA03F3DB43FA6835
:10187C001340FB607B68494A93420DD07B68484A11
:10188C00934207D07B68474A934201D1022304E07C
:10189C00032302E0012300E000237A6A02F0030232
:1018AC0092009340FA681343FB603B497B6A9B08A8
:1018BC000233FA6841F823203B685B6803F4801319
:1018CC00002B06D0384B9A683749BB6913438B60A1
:1018DC0006E0354B9A68BB69DB43334913408B6098
:1018EC003B685B6803F40013002B06D02E4BDA68C0
:1018FC002D49BB691343CB6006E02B4BDA68BB69FF
:10190C00DB4329491340CB603B685B6803F400332D
:10191C00002B06D0244B5A682349BB6913434B60F8
:10192C0006E0214B5A68BB69DB431F4913404B60EF
:10193C003B685B6803F48033002B06D01A4B1A68A3
:10194C001949BB6913430B6006E0174B1A68BB6956
:10195C00DB43154913400B607B6A01337B623B68A8
:10196C001A687B6A22FA03F3002B7FF4AFAE00BF38
:10197C0000BF2C37BD4680BC704700BF0000321042
:10198C000000311000002210000021100000121085
:10199C00000011100010024000000140000801403E
:1019AC00000C0140001001400004014080B483B0E1
:1019BC0000AF78600B467B8013467B707B78002BE6
:1019CC0003D07A887B681A6103E07B881A047B68F1
:1019DC001A6100BF0C37BD4680BC704780B485B01F
:1019EC0000AF78600B467B807B68DB68FB607A8895
:1019FC00FB6813401A04FB68D9437B880B401A43DD
:101A0C007B681A6100BF1437BD4680BC704700006C
:101A1C0080B586B000AF78607B68002B01D10123C4
:101A2C006CE27B681B6803F00103002B00F08780DD
:101A3C00924B5B6803F00C03042B0CD08F4B5B6850
:101A4C0003F00C03082B12D18C4B5B6803F480332E
:101A5C00B3F5803F0BD1894B1B6803F40033002B8B
:101A6C006CD07B685B68002B68D1012346E27B68F5
:101A7C005B68B3F5803F06D1804B1B687F4A43F40B
:101A8C00803313602EE07B685B68002B0CD17B4BA2
:101A9C001B687A4A23F480331360784B1B68774AAF
:101AAC0023F4802313601DE07B685B68B3F5A02FE3
:101ABC000CD1724B1B68714A43F4802313606F4B3B
:101ACC001B686E4A43F4803313600BE06B4B1B684E
:101ADC006A4A23F480331360684B1B68674A23F40B
:101AEC00802313607B685B68002B13D0FFF7CCFC62
:101AFC00386108E0FFF7C8FC02463B69D31A642B37
:101B0C0001D90323FAE15D4B1B6803F40033002B6E
:101B1C00F0D014E0FFF7B8FC386108E0FFF7B4FC34
:101B2C0002463B69D31A642B01D90323E6E1534BDC
:101B3C001B6803F40033002BF0D100E000BF7B687E
:101B4C001B6803F00203002B63D04C4B5B6803F063
:101B5C000C03002B0BD0494B5B6803F00C03082BD8
:101B6C001CD1464B5B6803F48033002B16D1434BDE
:101B7C001B6803F00203002B05D07B681B69012B4B
:101B8C0001D00123BAE13D4B1B6823F0F8027B68BE
:101B9C005B69DB00394913430B603AE07B681B69D6
:101BAC00002B20D0364B01221A60FFF76DFC3861F8
:101BBC0008E0FFF769FC02463B69D31A022B01D9F6
:101BCC0003239BE12D4B1B6803F00203002BF0D089
:101BDC002A4B1B6823F0F8027B685B69DB00274902
:101BEC0013430B6015E0264B00221A60FFF74CFCE8
:101BFC00386108E0FFF748FC02463B69D31A022B18
:101C0C0001D903237AE11D4B1B6803F00203002B5F
:101C1C00F0D17B681B6803F00803002B3AD07B687B
:101C2C009B69002B19D0174B01221A60FFF72CFC73
:101C3C00386108E0FFF728FC02463B69D31A022BF7
:101C4C0001D903235AE10D4B5B6A03F00203002B0D
:101C5C00F0D0012000F09AFA1CE00A4B00221A6026
:101C6C00FFF712FC38610FE0FFF70EFC02463B69F0
:101C7C00D31A022B08D9032340E100BF0010024005
:101C8C0000004242800442429E4B5B6A03F0020316
:101C9C00002BE9D17B681B6803F00403002B00F0D8
:101CAC00A6800023FB75974BDB6903F08053002B58
:101CBC000DD1944BDB69934A43F08053D361914B24
:101CCC00DB6903F08053BB60BB680123FB758E4B53
:101CDC001B6803F48073002B18D18B4B1B688A4A4A
:101CEC0043F480731360FFF7CFFB386108E0FFF714
:101CFC00CBFB02463B69D31A642B01D90323FDE0CD
:101D0C00814B1B6803F48073002BF0D07B68DB687D
:101D1C00012B06D17B4B1B6A7A4A43F001031362F9
:101D2C002DE07B68DB68002B0CD1764B1B6A754A67
:101D3C0023F001031362734B1B6A724A23F00403F2
:101D4C0013621CE07B68DB68052B0CD16D4B1B6AA6
:101D5C006C4A43F0040313626A4B1B6A694A43F0F2
:101D6C00010313620BE0674B1B6A664A23F0010305
:101D7C001362644B1B6A634A23F0040313627B688F
:101D8C00DB68002B15D0FFF77FFB38610AE0FFF70B
:101D9C007BFB02463B69D31A41F28832934201D94C
:101DAC000323ABE0574B1B6A03F00203002BEED06E
:101DBC0014E0FFF769FB38610AE0FFF765FB0246A8
:101DCC003B69D31A41F28832934201D9032395E03F
:101DDC004C4B1B6A03F00203002BEED1FB7D012B55
:101DEC0005D1484BDB69474A23F08053D3617B68AC
:101DFC00DB69002B00F08180424B5B6803F00C0325
:101E0C00082B61D07B68DB69022B46D13F4B00224B
:101E1C001A60FFF739FB386108E0FFF735FB024623
:101E2C003B69D31A022B01D9032367E0354B1B689E
:101E3C0003F00073002BF0D17B681B6AB3F5803F75
:101E4C0008D1304B5B6823F400327B689B682D49CA
:101E5C0013434B602B4B5B6823F474127B68196A39
:101E6C007B685B6A0B43274913434B60274B01226A
:101E7C001A60FFF709FB386108E0FFF705FB024623
:101E8C003B69D31A022B01D9032337E01D4B1B6886
:101E9C0003F00073002BF0D02FE01C4B00221A60D3
:101EAC00FFF7F2FA386108E0FFF7EEFA02463B69F9
:101EBC00D31A022B01D9032320E0124B1B6803F029
:101ECC000073002BF0D118E07B68DB69012B01D18A
:101EDC00012313E00B4B5B68FB60FB6803F480325F
:101EEC007B681B6A9A4206D1FB6803F470127B680C
:101EFC005B6A9A4201D0012300E000231846183790
:101F0C00BD4680BD0010024000700040600042429F
:101F1C0080B584B000AF786039607B68002B01D14C
:101F2C000123D0E06A4B1B6803F007033A689A421E
:101F3C0010D9674B1B6823F0070265493B681343B4
:101F4C000B60634B1B6803F007033A689A4201D09D
:101F5C000123B8E07B681B6803F00203002B20D040
:101F6C007B681B6803F00403002B05D0594B5B689E
:101F7C00584A43F4E06353607B681B6803F0080322
:101F8C00002B05D0534B5B68524A43F460535360AB
:101F9C00504B5B6823F0F0027B689B684D49134300
:101FAC004B607B681B6803F00103002B40D07B68FF
:101FBC005B68012B07D1474B1B6803F40033002BE4
:101FCC0015D101237FE07B685B68022B07D1414B65
:101FDC001B6803F00073002B09D1012373E03D4B08
:101FEC001B6803F00203002B01D101236BE0394B7A
:101FFC005B6823F003027B685B68364913434B60D4
:10200C00FFF742FAF8600AE0FFF73EFA0246FB6877
:10201C00D31A41F28832934201D9032353E02D4B5A
:10202C005B6803F00C027B685B689B009A42EBD107
:10203C00274B1B6803F007033A689A4210D2244BD3
:10204C001B6823F0070222493B6813430B60204BAB
:10205C001B6803F007033A689A4201D0012332E06F
:10206C007B681B6803F00403002B08D0194B5B68DA
:10207C0023F4E0627B68DB68164913434B607B6892
:10208C001B6803F00803002B09D0124B5B6823F488
:10209C0060527B681B69DB000E4913434B6000F0F8
:1020AC0021F802460B4B5B681B0903F00F030A492E
:1020BC00CB5C22FA03F3094A1360094B1B681846E0
:1020CC00FFF7A0F9002318461037BD4680BD00BFAE
:1020DC000020024000100240042A000820000020CA
:1020EC002400002080B487B000AF0023FB600023E5
:1020FC00BB6000237B6100237B6000233B611E4B94
:10210C005B68FB60FB6803F00C03042B02D0082B0C
:10211C0003D027E0194B3B6127E0FB689B0C03F0D5
:10212C000F03174AD35C7B60FB6803F48033002BEE
:10213C0010D0114B5B685B0C03F00103114AD35CAC
:10214C00BB607B680D4A02FB03F2BB68B2FBF3F386
:10215C007B6104E07B680C4A02FB03F37B617B69C7
:10216C003B6102E0054B3B6100BF3B6918461C37E5
:10217C00BD4680BC704700BF0010024000127A00C0
:10218C00142A0008242A000800093D0080B485B0F8
:10219C0000AF78600A4B1B680A4AA2FB03235B0A58
:1021AC007A6802FB03F3FB6000BFFB685A1EFA60FF
:1021BC00002BF9D100BF00BF1437BD4680BC70475F
:1021CC0020000020D34D621080B582B000AF786043
:1021DC007B68002B01D1012341E07B6893F83D30F3
:1021EC00DBB2002B06D17B68002283F83C20786898
:1021FC00FFF770F87B68022283F83D207B681A6831
:10220C007B6804331946104600F056FA7B680122AD
:10221C0083F846207B68012283F83E207B680122EC
:10222C0083F83F207B68012283F840207B680122E1
:10223C0083F841207B68012283F842207B680122CD
:10224C0083F843207B68012283F844207B680122B9
:10225C0083F845207B68012283F83D200023184633
:10226C000837BD4680BD000080B485B000AF7860F3
:10227C007B6893F83D30DBB2012B01D0012335E0B4
:10228C007B68022283F83D207B681B68DA687B68D8
:10229C001B6842F00102DA607B681B68164A9342A5
:1022AC0009D07B681B68B3F1804F04D07B681B6836
:1022BC00124A934211D17B681B689B6803F0070399
:1022CC00FB60FB68062B10D07B681B681A687B6868
:1022DC001B6842F001021A6007E07B681B681A68F1
:1022EC007B681B6842F001021A6000231846143701
:1022FC00BD4680BC704700BF002C0140000400406C
:10230C0080B584B000AF78607B681B68DB68FB60CD
:10231C007B681B681B69BB60BB6803F00203002B66
:10232C0020D0FB6803F00203002B1BD07B681B68DA
:10233C006FF002021A617B6801221A777B681B68B6
:10234C009B6903F00303002B03D0786800F098F925
:10235C0005E0786800F08BF9786800F09AF97B68F2
:10236C0000221A77BB6803F00403002B20D0FB6813
:10237C0003F00403002B1BD07B681B686FF0040276
:10238C001A617B6802221A777B681B689B6903F4CD
:10239C004073002B03D0786800F072F905E0786880
:1023AC0000F065F9786800F074F97B6800221A7700
:1023BC00BB6803F00803002B20D0FB6803F0080374
:1023CC00002B1BD07B681B686FF008021A617B68BE
:1023DC0004221A777B681B68DB6903F00303002B6C
:1023EC0003D0786800F04CF905E0786800F03FF90C
:1023FC00786800F04EF97B6800221A77BB6803F00E
:10240C001003002B20D0FB6803F01003002B1BD013
:10241C007B681B686FF010021A617B6808221A77C0
:10242C007B681B68DB6903F44073002B03D078686E
:10243C0000F026F905E0786800F019F9786800F0EA
:10244C0028F97B6800221A77BB6803F00103002B84
:10245C000CD0FB6803F00103002B07D07B681B68D2
:10246C006FF001021A617868FEF7F2FEBB6803F0A8
:10247C008003002B0CD0FB6803F08003002B07D0EB
:10248C007B681B686FF080021A61786800F06FFA45
:10249C00BB6803F04003002B0CD0FB6803F0400337
:1024AC00002B07D07B681B686FF040021A617868BC
:1024BC0000F0F8F8BB6803F02003002B0CD0FB688D
:1024CC0003F02003002B07D07B681B686FF0200201
:1024DC001A61786800F042FA00BF1037BD4680BD23
:1024EC0080B584B000AF786039600023FB737B68E3
:1024FC0093F83C30012B01D10223B4E07B6801221C
:10250C0083F83C207B68022283F83D207B681B68A3
:10251C009B68BB60BB6823F07703BB60BB6823F48C
:10252C007F43BB607B681B68BA689A603B681B681A
:10253C00B3F5005F3ED0B3F5005F00F28780B3F5D2
:10254C00805F00F08680B3F5805F7FD8702B1AD047
:10255C00702B7BD8602B50D0602B77D8502B3CD075
:10256C00502B73D8402B58D0402B6FD8302B64D0C5
:10257C00302B6BD8202B60D0202B67D8002B5CD055
:10258C00102B5AD062E07B6818683B6899683B68EE
:10259C005A683B68DB6800F06AF97B681B689B68CB
:1025AC00BB60BB6843F07703BB607B681B68BA6891
:1025BC009A604FE07B6818683B6899683B685A687A
:1025CC003B68DB6800F053F97B681B689A687B6892
:1025DC001B6842F480429A603CE07B6818683B6858
:1025EC0059683B68DB681A4600F0CAF87B681B68C0
:1025FC005021184600F021F92CE07B6818683B68E4
:10260C0059683B68DB681A4600F0E8F87B681B6881
:10261C006021184600F011F91CE07B6818683B68D3
:10262C0059683B68DB681A4600F0AAF87B681B689F
:10263C004021184600F001F90CE07B681A683B68F1
:10264C001B681946104600F0F8F803E00123FB73F1
:10265C0000E000BF7B68012283F83D207B680022EC
:10266C0083F83C20FB7B18461037BD4680BD80B4F8
:10267C0083B000AF786000BF0C37BD4680BC70479C
:10268C0080B483B000AF786000BF0C37BD4680BC0F
:10269C00704780B483B000AF786000BF0C37BD4684
:1026AC0080BC704780B483B000AF786000BF0C373B
:1026BC00BD4680BC7047000080B485B000AF786028
:1026CC0039607B681B68FB607B682B4A934207D0A0
:1026DC007B68B3F1804F03D07B68284A934208D1C2
:1026EC00FB6823F07003FB603B685B68FA6813437C
:1026FC00FB607B68204A934207D07B68B3F1804F24
:10270C0003D07B681D4A934208D1FB6823F44073C5
:10271C00FB603B68DB68FA681343FB60FB6823F0E3
:10272C0080023B685B691343FB607B68FA681A6044
:10273C003B689A687B68DA623B681A687B689A62C5
:10274C007B680D4A934203D13B681A697B681A6314
:10275C007B6801225A617B681B6903F00103002B23
:10276C0005D07B681B6923F001027B681A6100BFEE
:10277C001437BD4680BC7047002C0140000400405B
:10278C0080B487B000AFF860B9607A60FB681B6AF0
:10279C007B61FB681B6A23F00102FB681A62FB6811
:1027AC009B693B613B6923F0F0033B617B681B0138
:1027BC003A6913433B617B6923F00A037B617A69B5
:1027CC00BB6813437B61FB683A699A61FB687A6961
:1027DC001A6200BF1C37BD4680BC704780B487B0FE
:1027EC0000AFF860B9607A60FB681B6A7B61FB68BC
:1027FC001B6A23F01002FB681A62FB689B693B6141
:10280C003B6923F470433B617B681B033A691343B8
:10281C003B617B6923F0A0037B61BB681B017A6978
:10282C0013437B61FB683A699A61FB687A691A62A7
:10283C0000BF1C37BD4680BC704780B485B000AF6C
:10284C00786039607B689B68FB60FB6823F07003E1
:10285C00FB603A68FB68134343F00703FB607B683B
:10286C00FA689A6000BF1437BD4680BC704780B4CC
:10287C0087B000AFF860B9607A603B60FB689B681A
:10288C007B617B6923F47F437B613B681A027B6825
:10289C001A43BB6813437A6913437B61FB687A69FB
:1028AC009A6000BF1C37BD4680BC704780B485B0B1
:1028BC0000AF786039607B6893F83C30012B01D114
:1028CC00022341E07B68012283F83C207B680222D2
:1028DC0083F83D207B681B685B68FB607B681B682A
:1028EC009B68BB60FB6823F07003FB603B681B6854
:1028FC00FA681343FB607B681B68FA685A607B6854
:10290C001B68144A934209D07B681B68B3F1804F53
:10291C0004D07B681B68104A93420CD1BB6823F02F
:10292C008003BB603B685B68BA681343BB607B6821
:10293C001B68BA689A607B68012283F83D207B682B
:10294C00002283F83C20002318461437BD4680BC77
:10295C00704700BF002C01400004004080B483B0DD
:10296C0000AF786000BF0C37BD4680BC704780B4A8
:10297C0083B000AF786000BF0C37BD4680BC704799
:10298C0070B500260C4D0D4C641BA410A64209D149
:10299C0000F022F800260A4D0A4C641BA410A64233
:1029AC0005D170BD55F8043B98470136EEE755F854
:1029BC00043B98470136F2E7282A0008282A000829
:1029CC00282A00082C2A000803460244934200D10E
:1029DC00704703F8011BF9E7F8B500BFF8BC08BC59
:1029EC009E467047F8B500BFF8BC08BC9E467047C1
:1029FC00182442427E424200000000000000000009
:102A0C000102030406070809020304050607080966
:0C2A1C000A0B0C0D0E0F10100102000040
:042A28003101000870
:042A2C000D01000890
:102A30000100000005000000050000000900000082
:102A40000F0000003B000000370000000A000000FB
:0C2A500000127A001000000001000000DD
:040000050800139943
:00000001FF
